{"abi":[{"type":"function","name":"automationContract","inputs":[],"outputs":[{"name":"","type":"address","internalType":"address"}],"stateMutability":"view"},{"type":"function","name":"balance","inputs":[{"name":"","type":"address","internalType":"address"}],"outputs":[{"name":"","type":"uint256","internalType":"uint256"}],"stateMutability":"view"},{"type":"function","name":"deposit","inputs":[],"outputs":[],"stateMutability":"payable"},{"type":"function","name":"owner","inputs":[],"outputs":[{"name":"","type":"address","internalType":"address"}],"stateMutability":"view"},{"type":"function","name":"setAutomationContract","inputs":[{"name":"_automationContract","type":"address","internalType":"address"}],"outputs":[],"stateMutability":"nonpayable"},{"type":"function","name":"setThreshold","inputs":[{"name":"_newThreshold","type":"uint256","internalType":"uint256"}],"outputs":[],"stateMutability":"nonpayable"},{"type":"function","name":"threshold","inputs":[],"outputs":[{"name":"","type":"uint256","internalType":"uint256"}],"stateMutability":"view"},{"type":"function","name":"transferHalf","inputs":[],"outputs":[],"stateMutability":"nonpayable"},{"type":"function","name":"withdraw","inputs":[{"name":"_amount","type":"uint256","internalType":"uint256"}],"outputs":[],"stateMutability":"nonpayable"},{"type":"event","name":"AutomationContractUpdated","inputs":[{"name":"newAutomationContract","type":"address","indexed":false,"internalType":"address"}],"anonymous":false},{"type":"event","name":"Deposit","inputs":[{"name":"user","type":"address","indexed":true,"internalType":"address"},{"name":"amount","type":"uint256","indexed":false,"internalType":"uint256"}],"anonymous":false},{"type":"event","name":"ThresholdUpdated","inputs":[{"name":"newThreshold","type":"uint256","indexed":false,"internalType":"uint256"}],"anonymous":false},{"type":"event","name":"Withdrawal","inputs":[{"name":"user","type":"address","indexed":true,"internalType":"address"},{"name":"amount","type":"uint256","indexed":false,"internalType":"uint256"}],"anonymous":false}],"bytecode":{"object":"0x6080604052335f5f6101000a81548173ffffffffffffffffffffffffffffffffffffffff021916908373ffffffffffffffffffffffffffffffffffffffff160217905550600a6002553480156052575f5ffd5b50610f5c806100605f395ff3fe608060405260043610610085575f3560e01c80638da5cb5b116100585780638da5cb5b1461012d578063960bfe0414610157578063a430e9791461017f578063d0e30db014610195578063e3d670d71461019f57610085565b80630689d5ed146100895780632e1a7d4d146100b357806342cde4e8146100db57806362909f0a14610105575b5f5ffd5b348015610094575f5ffd5b5061009d6101db565b6040516100aa919061096e565b60405180910390f35b3480156100be575f5ffd5b506100d960048036038101906100d491906109be565b610200565b005b3480156100e6575f5ffd5b506100ef610366565b6040516100fc91906109f8565b60405180910390f35b348015610110575f5ffd5b5061012b60048036038101906101269190610a3b565b61036c565b005b348015610138575f5ffd5b506101416104e2565b60405161014e919061096e565b60405180910390f35b348015610162575f5ffd5b5061017d600480360381019061017891906109be565b610506565b005b34801561018a575f5ffd5b506101936105d5565b005b61019d610835565b005b3480156101aa575f5ffd5b506101c560048036038101906101c09190610a3b565b61091a565b6040516101d291906109f8565b60405180910390f35b60015f9054906101000a900473ffffffffffffffffffffffffffffffffffffffff1681565b5f5f9054906101000a900473ffffffffffffffffffffffffffffffffffffffff1673ffffffffffffffffffffffffffffffffffffffff163373ffffffffffffffffffffffffffffffffffffffff161461028e576040517f08c379a000000000000000000000000000000000000000000000000000000000815260040161028590610ac0565b60405180910390fd5b478111156102d1576040517f08c379a00000000000000000000000000000000000000000000000000000000081526004016102c890610b28565b60405180910390fd5b3373ffffffffffffffffffffffffffffffffffffffff166108fc8290811502906040515f60405180830381858888f19350505050158015610314573d5f5f3e3d5ffd5b503373ffffffffffffffffffffffffffffffffffffffff167f7fcf532c15f0a6db0bd6d0e038bea71d30d808c7d98cb3bf7268a95bf5081b658260405161035b91906109f8565b60405180910390a250565b60025481565b5f5f9054906101000a900473ffffffffffffffffffffffffffffffffffffffff1673ffffffffffffffffffffffffffffffffffffffff163373ffffffffffffffffffffffffffffffffffffffff16146103fa576040517f08c379a00000000000000000000000000000000000000000000000000000000081526004016103f190610ac0565b60405180910390fd5b5f73ffffffffffffffffffffffffffffffffffffffff168173ffffffffffffffffffffffffffffffffffffffff1603610468576040517f08c379a000000000000000000000000000000000000000000000000000000000815260040161045f90610bb6565b60405180910390fd5b8060015f6101000a81548173ffffffffffffffffffffffffffffffffffffffff021916908373ffffffffffffffffffffffffffffffffffffffff1602179055507fac87c09c0e062ebbbdf667f6de55f3f2af44acfa2f23bf376d63dcf753f51731816040516104d7919061096e565b60405180910390a150565b5f5f9054906101000a900473ffffffffffffffffffffffffffffffffffffffff1681565b5f5f9054906101000a900473ffffffffffffffffffffffffffffffffffffffff1673ffffffffffffffffffffffffffffffffffffffff163373ffffffffffffffffffffffffffffffffffffffff1614610594576040517f08c379a000000000000000000000000000000000000000000000000000000000815260040161058b90610ac0565b60405180910390fd5b806002819055507fadfa8ecb21b6962ebcd0adbd9ab985b7b4c5b5eb3b0dead683171565c7bfe171816040516105ca91906109f8565b60405180910390a150565b60015f9054906101000a900473ffffffffffffffffffffffffffffffffffffffff1673ffffffffffffffffffffffffffffffffffffffff163373ffffffffffffffffffffffffffffffffffffffff1614610664576040517f08c379a000000000000000000000000000000000000000000000000000000000815260040161065b90610c44565b60405180910390fd5b6002544710156106a9576040517f08c379a00000000000000000000000000000000000000000000000000000000081526004016106a090610cac565b60405180910390fd5b5f6002476106b79190610d24565b90505f81116106fb576040517f08c379a00000000000000000000000000000000000000000000000000000000081526004016106f290610dc4565b60405180910390fd5b5f5f5f9054906101000a900473ffffffffffffffffffffffffffffffffffffffff1673ffffffffffffffffffffffffffffffffffffffff168260405161074090610e0f565b5f6040518083038185875af1925050503d805f811461077a576040519150601f19603f3d011682016040523d82523d5f602084013e61077f565b606091505b50509050806107c3576040517f08c379a00000000000000000000000000000000000000000000000000000000081526004016107ba90610e6d565b60405180910390fd5b5f5f9054906101000a900473ffffffffffffffffffffffffffffffffffffffff1673ffffffffffffffffffffffffffffffffffffffff167f7fcf532c15f0a6db0bd6d0e038bea71d30d808c7d98cb3bf7268a95bf5081b658360405161082991906109f8565b60405180910390a25050565b5f3411610877576040517f08c379a000000000000000000000000000000000000000000000000000000000815260040161086e90610ed5565b60405180910390fd5b3460035f3373ffffffffffffffffffffffffffffffffffffffff1673ffffffffffffffffffffffffffffffffffffffff1681526020019081526020015f205f8282546108c39190610ef3565b925050819055503373ffffffffffffffffffffffffffffffffffffffff167fe1fffcc4923d04b559f4d29a8bfc6cda04eb5b0d3c460751c2402c5c5cc9109c3460405161091091906109f8565b60405180910390a2565b6003602052805f5260405f205f915090505481565b5f73ffffffffffffffffffffffffffffffffffffffff82169050919050565b5f6109588261092f565b9050919050565b6109688161094e565b82525050565b5f6020820190506109815f83018461095f565b92915050565b5f5ffd5b5f819050919050565b61099d8161098b565b81146109a7575f5ffd5b50565b5f813590506109b881610994565b92915050565b5f602082840312156109d3576109d2610987565b5b5f6109e0848285016109aa565b91505092915050565b6109f28161098b565b82525050565b5f602082019050610a0b5f8301846109e9565b92915050565b610a1a8161094e565b8114610a24575f5ffd5b50565b5f81359050610a3581610a11565b92915050565b5f60208284031215610a5057610a4f610987565b5b5f610a5d84828501610a27565b91505092915050565b5f82825260208201905092915050565b7f4f6e6c79206f776e65722063616e2063616c6c207468697300000000000000005f82015250565b5f610aaa601883610a66565b9150610ab582610a76565b602082019050919050565b5f6020820190508181035f830152610ad781610a9e565b9050919050565b7f496e73756666696369656e742062616c616e63650000000000000000000000005f82015250565b5f610b12601483610a66565b9150610b1d82610ade565b602082019050919050565b5f6020820190508181035f830152610b3f81610b06565b9050919050565b7f4175746f6d6174696f6e20636f6e74726163742063616e6e6f74206265207a655f8201527f726f206164647265737300000000000000000000000000000000000000000000602082015250565b5f610ba0602a83610a66565b9150610bab82610b46565b604082019050919050565b5f6020820190508181035f830152610bcd81610b94565b9050919050565b7f4f6e6c79206175746f6d6174696f6e2063616e2063616c6c20746869732066755f8201527f6e6374696f6e0000000000000000000000000000000000000000000000000000602082015250565b5f610c2e602683610a66565b9150610c3982610bd4565b604082019050919050565b5f6020820190508181035f830152610c5b81610c22565b9050919050565b7f546f74616c206465706f736974732062656c6f77207468726573686f6c6400005f82015250565b5f610c96601e83610a66565b9150610ca182610c62565b602082019050919050565b5f6020820190508181035f830152610cc381610c8a565b9050919050565b7f4e487b71000000000000000000000000000000000000000000000000000000005f52601260045260245ffd5b7f4e487b71000000000000000000000000000000000000000000000000000000005f52601160045260245ffd5b5f610d2e8261098b565b9150610d398361098b565b925082610d4957610d48610cca565b5b828204905092915050565b7f416d6f756e7420746f207472616e73666572206d7573742062652067726561745f8201527f6572207468616e20300000000000000000000000000000000000000000000000602082015250565b5f610dae602983610a66565b9150610db982610d54565b604082019050919050565b5f6020820190508181035f830152610ddb81610da2565b9050919050565b5f81905092915050565b50565b5f610dfa5f83610de2565b9150610e0582610dec565b5f82019050919050565b5f610e1982610def565b9150819050919050565b7f5472616e73666572206661696c656400000000000000000000000000000000005f82015250565b5f610e57600f83610a66565b9150610e6282610e23565b602082019050919050565b5f6020820190508181035f830152610e8481610e4b565b9050919050565b7f416d6f756e74206d7573742062652067726561746572207468616e20300000005f82015250565b5f610ebf601d83610a66565b9150610eca82610e8b565b602082019050919050565b5f6020820190508181035f830152610eec81610eb3565b9050919050565b5f610efd8261098b565b9150610f088361098b565b9250828201905080821115610f2057610f1f610cf7565b5b9291505056fea2646970667358221220ddfba30abd863950090d8d8f94b289b4f206690911ca042c9e2905e2318278f664736f6c634300081e0033","linkReferences":{}},"methodIdentifiers":{"automationContract()":"0689d5ed","balance(address)":"e3d670d7","deposit()":"d0e30db0","owner()":"8da5cb5b","setAutomationContract(address)":"62909f0a","setThreshold(uint256)":"960bfe04","threshold()":"42cde4e8","transferHalf()":"a430e979","withdraw(uint256)":"2e1a7d4d"},"id":0}